:040000002AEF05F0EE
:08000800046ED8CF05F0E0CF33
:1000100006F00001E9CF0CF0EACF07F0E1CF08F0DD
:10002000E2CF09F0D9CF0AF0DACF0BF0F3CF12F01C
:10003000F4CF13F0FACF14F0F5CF15F0F6CF16F099
:10004000F7CF17F000C00EF001C00FF002C010F0A3
:1000500003C011F09DA030EF00F09EB077EF01F0EB
:100060009DAA36EF00F09EBAC9EF01F00EC000F075
:100070000FC001F010C002F011C003F00CC0E9FF86
:1000800007C0EAFF078E08C0E1FF09C0E2FF0AC00F
:10009000D9FF0BC0DAFF12C0F3FF13C0F4FF14C086
:1000A000FAFF15C0F5FF16C0F6FF17C0F7FF0450A2
:1000B00006C0E0FF05C0D8FF1000F76ACA0FF66E51
:1000C000000EF7220900F550120000C1814001C066
:1000D000804101C0804100C1814001C0804100C118
:1000E000814000C1814001C0804101C0804100C108
:1000F000814000C1814001C0804100C1814001C0F8
:10010000804101C0804100C1814001C0804100C1E7
:10011000814000C1814001C0804100C1814001C0D7
:10012000804101C0804100C1814000C1814001C0C7
:10013000804101C0804100C1814001C0804100C1B7
:10014000814000C1814001C0804101C0804100C1A7
:10015000814000C1814001C0804100C1814001C097
:10016000804101C0804100C1814000C1814001C087
:10017000804101C0804100C1814001C0804100C177
:10018000814000C1814001C0804100C1814001C067
:10019000804101C0804100C1814001C0804100C157
:1001A000814000C1814001C0804101C0804100C147
:1001B000814000C1814001C0804100C1814001C037
:1001C000804101C0804100C18140F76ADA0FF66EBC
:1001D000010EF7220900F550120000C0C101C3034F
:1001E00002C2C60607C705C5C404CC0C0DCD0FCF8F
:1001F000CE0E0ACACB0BC90908C8D81819D91BDBFF
:10020000DA1A1EDEDF1FDD1D1CDC14D4D515D7174E
:1002100016D6D21213D311D1D010F03031F133F3FE
:10022000F23236F6F737F53534F43CFCFD3DFF3F4E
:100230003EFEFA3A3BFB39F9F83828E8E929EB2B7E
:100240002AEAEE2E2FEF2DEDEC2CE42425E527E70E
:10025000E62622E2E323E12120E0A06061A163A37E
:10026000A26266A6A767A56564A46CACAD6DAF6F0E
:100270006EAEAA6A6BAB69A9A86878B8B979BB7B7E
:100280007ABABE7E7FBF7DBDBC7CB47475B577B7CE
:10029000B67672B2B373B17170B0509091519353FE
:1002A000529296565797559594549C5C5D9D5F9FCE
:1002B0009E5E5A9A9B5B99595898884849894B8BFE
:1002C0008A4A4E8E8F4F8D4D4C8C4484854587478E
:1002D00046868242438341818040F76AEA0FF66E88
:1002E000020EF7220900F5501200280C01065F2AC1
:1002F0009E9036EF00F09EAAFED7ABCF60F0AECF57
:1003000001F0080E8B6F8A6BAECF00F000508A1B95
:1003100000328B2FFBD7010E8A15601A60A202D023
:10032000AB98AB8812008BC000F08CC001F0026A61
:10033000D890003601360236D890003601360236A3
:10034000D890003601360236D89000360136023693
:10035000D89000360136023602C05FF001C0CFFFF0
:1003600000C0CEFF12001A928AB11A828C6B8B6B7E
:10037000DADF120067508A198B6F036A8B519DDE9A
:10038000016E66500118676E036A8B511EDF666E40
:100390001200B1DF01C089F01AB028D0655208E11F
:1003A0006768666889C01BF0652A1C6A1E6A18D0D7
:1003B000652C04D089C01DF0652A12D06550020852
:1003C0000FE11C503F0802E23F0E1C6E036A1C50F6
:1003D0001F0FE96E000E0320EA6E89C0EFFF1C2A92
:1003E000010E8A6FC0DF89C08AF0C4DF646A636A65
:1003F000270E626E100E616E9E9A36EF00F05379F2
:100400007374656D20537461727465642100256C8A
:1004100075202020202020009EAA08D0196AF2BE54
:10042000198EF29E68DF19BEF28EF6D7AE50959403
:100430008C949D8A12000090EFDFC00EF2125BEFE9
:1004400005F0EA6A800EE96EEF500DE0020E016ED3
:10045000006A002EFED7012EFBD7970E006E002EED
:10046000FED7EF2EF3D7120087B102D08A9801D0C1
:100470008A88939887B302D08A9A01D08A8A939AFD
:1004800087B502D08A9C01D08A8C939C87B702D012
:100490008A9E01D08A8E939E000093928A8200D019
:1004A00000D093928A921200886B93928A8200D035
:1004B0009388889181B88881938A889381BA888348
:1004C000938C889581BC8885938E889781BE888718
:1004D00093928A9200D088C001F0120093948A848B
:1004E0000000E2DF01C087F0DFDF01C086F087395E
:1004F000006EF00E001600508611016E83EF02F0C0
:1005000093968A96EBD701C086F001BEFBD7845341
:1005100003E093968A8602D093968A96000093947D
:100520008A94000093928A928539866F0F0E8617FF
:1005300086C087F099DF85510F0B866F876F94DF38
:100540001200010E686E93968A9693948A94939201
:100550008A92230E806F75DF746A7450020808E374
:10056000030E876F81DF050E806F6BDF742AF5D76E
:10057000020E876F79DF746A7450030809E3036A17
:100580007450ABDE756E846B856FBADF742AF4D756
:100590005CEF05F08151010A07E0030A07E0010A58
:1005A00008E0070A09E00BD0826B0AD0400E826F88
:1005B00007D0140E826F04D0540E826F01D0826B6C
:1005C000010E805D822782518009836F846B856F65
:1005D00097DF12007F500C0A05E0060A0DE0020AC0
:1005E00012E016D0846B010E856F8ADF010E686EF3
:1005F000020E806F26DF11D0682A010E806F68C05E
:1006000081F0C8DF0AD0846B100E856F79DF05D0CA
:10061000010E846F7FC085F073DF12000900F55270
:100620000CE0F6CF74F0F7CF75F0F5CF7FF0D2DFA6
:1006300074C0F6FF75C0F7FFF1D768EF05F0080E3C
:10064000016E856B84C000F00050851B0032012EC6
:10065000FBD79EA8FED7FE0EAC1685B1AC8084C039
:10066000ADFF36EF03F083C084F0E9D7196AF2BE1C
:10067000198EF29E83C08AF07DDE19BEF28E450E81
:10068000006E002EFED71200676866681A909D9A69
:10069000F20E006E002EFED7000081C083F0E3DF73
:1006A00082C083F0E0DF120067C082F066C081F094
:1006B00082C083F0D8DF81C083F0D5DFACA2FED743
:1006C000F20E006E002EFED70000A6DE6768666898
:1006D00012005FC001F0CE50CFCF03F09D90026EAC
:1006E0005F50015C04E0CE50CFCF03F001D0025048
:1006F000006E03C001F05FC002F00232013200322E
:100700000232013200320232013200320232013250
:1007100000320232013200329D80ADEF03F06550AD
:1007200002080AE1665208E1675206E11AB004D0F5
:10073000020E1C5E1A8001D01A9067686668656AAE
:10074000196AF2BE198EF29E8A6B0DDE19BEF28E08
:10075000B7EF03F01AA20BD0BCD701C082F000C0E3
:1007600081F0825303E18151280801E2D8D7BAEF22
:1007700003F0F0D71AB004D0000E016E0AD006D0F4
:100780001DAE04D01FC01EF0010E1C6E1A90010E8B
:10079000016E12007CC081F0060E826F75DF7EC094
:1007A00083F061DF7DC083F05EDF80C083F05BDFBC
:1007B0007FC083F058DF78DF1A927C521FE0D9DFC8
:1007C000015212E1FF0E6126D8A06226D8A063264E
:1007D000D8A06426615206E1625204E1635202E14C
:1007E000645202E000D0EBD7615208E1625206E1A8
:1007F000635204E1645202E10C0E1E6E646A636A85
:10080000270E626E100E616E1EC001F015EF04F02F
:1008100095948C84050E7C6E75C07EF074C07DF05E
:1008200077C080F076C07FF0B5D7786A010E796E18
:100830001C50795C24E2036A79501F0FE96E000EA8
:100840000320EA6EEFCF7BF0010E7924036A1F0FBD
:10085000E96E000E0320EA6EEFCF7AF0D89078347C
:10086000036A690FE96E000E0320EA6E7BC0ECFF9D
:10087000ED527AC0EFFF782A020E7926D9D79594E7
:100880008C946FEF05F07CC081F0030E826FFCDE6C
:100890007EC083F0E8DE7DC083F0E5DE80C083F0BB
:1008A000E2DE7FC083F0DFDEFFDE1A927C521FE0C3
:1008B00060DF015212E1FF0E6126D8A06226D8A0A7
:1008C0006326D8A06426615206E1625204E16352B5
:1008D00002E1645202E000D0EBD7615208E16252BB
:1008E00006E1635204E1645202E10C0E1E6E646A7A
:1008F000636A270E626E100E616E1EC001F08EEFED
:1009000004F095948C84050E7C6E75C07EF074C0E6
:100910007DF077C080F076C07FF0B5D7786A010EA1
:10092000796E1C50795C24E2036A79501F0FE96EDE
:10093000000E0320EA6EEFCF7BF0010E7924036AEC
:100940001F0FE96E000E0320EA6EEFCF7AF0D89009
:100950007834036A690FE96E000E0320EA6E7BC0EB
:10096000ECFFED527AC0EFFF782A020E7926D9D734
:1009700095948C9475EF05F0EACF7EF0E9CF7DF089
:100980007738F009796E7926E20F7A6E320F7C6E35
:1009900077500F0B7A267A267C26E90F7B6E7B2612
:1009A0007B2676380F0B7B267C267B367C367C1E9E
:1009B0007C3676500F0B7C267936070E786E0A0E41
:1009C0007B067C26FDE37A067B26FDE379067A2604
:1009D000FDE378067926FDE3EA6A780EE96E070EF4
:1009E0007D147D9CE926000EEA22E9507C0803E193
:1009F000EA5201E17D8CEF50006E08E17DBC06D02B
:100A00007DB813D07DB602D0200E03D07D867D98B0
:100A1000300E0026EACF77F0E9CF76F000C07FF005
:100A2000D9DD77C0EAFF76C0E9FFEE507DACDDD7B7
:100A300093EF05F00900F6CF77F0F7CF78F0F5CF18
:100A40007FF0C8DD77C0F6FF78C0F7FF762EF2D7CB
:100A50009AEF05F0F86AD09E078E700ED36E9B6AEF
:100A6000D3501A905F6ACD90B50ECD6ECF6ACE6A24
:100A700000009E909D80606AB8960C0EAF6EE20EEC
:100A8000AC6ED00EAB6E000000001A92646A636A0E
:100A9000270E626E100E616E656A6F6A716A706A07
:100AA000C150C00B0F09C16E070EB46EC150C00B10
:100AB0000F09C16EC0D445D5640E806FC2DC010E33
:100AC000806F816F67DDFE0EF66E030EF76EA6D5A2
:100AD000756A010E746E776A6FC076F099D6756A82
:100AE000746A776A030E766E0CD7010E726E736AA3
:100AF0007350020822E3010E7224746E010E806F9F
:100B000074C081F047DDD8907334036A690FE96ED1
:100B1000000E0320EA6EECCF77F0ED52EFCF76F0C7
:100B2000100EE96E29D7110EF66E040EF76E060E42
:100B3000766E80D7722A732ADBD7692C04D06A526A
:100B400002E194988B88695204E16A5202E1949818
:0E0B50008B986F2A640E806F74DCBAD7030096
:020000040030CA
:0E00000000C81E1E008781000FC00FE00F40D9
:00000001FF
;PIC18F4520
;CRC=E3DE  CREATED="22-Kas-22 00:01"
